{
  "contractName": "Whitelist",
  "abi": [
    {
      "anonymous": false,
      "inputs": [
        {
          "indexed": false,
          "internalType": "address",
          "name": "_address",
          "type": "address"
        }
      ],
      "name": "Whitelisted",
      "type": "event"
    },
    {
      "inputs": [
        {
          "internalType": "address",
          "name": "",
          "type": "address"
        }
      ],
      "name": "_whitelist",
      "outputs": [
        {
          "internalType": "bool",
          "name": "",
          "type": "bool"
        }
      ],
      "stateMutability": "view",
      "type": "function",
      "constant": true
    },
    {
      "inputs": [
        {
          "internalType": "uint256",
          "name": "",
          "type": "uint256"
        }
      ],
      "name": "addresses",
      "outputs": [
        {
          "internalType": "address",
          "name": "",
          "type": "address"
        }
      ],
      "stateMutability": "view",
      "type": "function",
      "constant": true
    },
    {
      "inputs": [
        {
          "internalType": "address",
          "name": "_address",
          "type": "address"
        }
      ],
      "name": "whitelist",
      "outputs": [],
      "stateMutability": "nonpayable",
      "type": "function"
    },
    {
      "inputs": [],
      "name": "getAddresses",
      "outputs": [
        {
          "internalType": "address[]",
          "name": "",
          "type": "address[]"
        }
      ],
      "stateMutability": "view",
      "type": "function",
      "constant": true
    }
  ],
  "bytecode": "0x608060405234801561001057600080fd5b50610668806100206000396000f3fe608060405234801561001057600080fd5b5060043610610069576000357c0100000000000000000000000000000000000000000000000000000000900480639b19251a1461006e578063a39fac121461008a578063cfdb63ac146100a8578063edf26d9b146100d8575b600080fd5b6100886004803603810190610083919061039f565b610108565b005b610092610288565b60405161009f9190610515565b60405180910390f35b6100c260048036038101906100bd919061039f565b610316565b6040516100cf9190610537565b60405180910390f35b6100f260048036038101906100ed91906103c8565b610336565b6040516100ff91906104fa565b60405180910390f35b6000808273ffffffffffffffffffffffffffffffffffffffff1673ffffffffffffffffffffffffffffffffffffffff16815260200190815260200160002060009054906101000a900460ff1615610194576040517f08c379a000000000000000000000000000000000000000000000000000000000815260040161018b90610552565b60405180910390fd5b60016000808373ffffffffffffffffffffffffffffffffffffffff1673ffffffffffffffffffffffffffffffffffffffff16815260200190815260200160002060006101000a81548160ff0219169083151502179055506001819080600181540180825580915050600190039060005260206000200160009091909190916101000a81548173ffffffffffffffffffffffffffffffffffffffff021916908373ffffffffffffffffffffffffffffffffffffffff1602179055507faab7954e9d246b167ef88aeddad35209ca2489d95a8aeb59e288d9b19fae5a548160405161027d91906104fa565b60405180910390a150565b6060600180548060200260200160405190810160405280929190818152602001828054801561030c57602002820191906000526020600020905b8160009054906101000a900473ffffffffffffffffffffffffffffffffffffffff1673ffffffffffffffffffffffffffffffffffffffff16815260200190600101908083116102c2575b5050505050905090565b60006020528060005260406000206000915054906101000a900460ff1681565b6001818154811061034657600080fd5b906000526020600020016000915054906101000a900473ffffffffffffffffffffffffffffffffffffffff1681565b60008135905061038481610604565b92915050565b6000813590506103998161061b565b92915050565b6000602082840312156103b157600080fd5b60006103bf84828501610375565b91505092915050565b6000602082840312156103da57600080fd5b60006103e88482850161038a565b91505092915050565b60006103fd8383610409565b60208301905092915050565b610412816105bc565b82525050565b610421816105bc565b82525050565b600061043282610582565b61043c818561059a565b935061044783610572565b8060005b8381101561047857815161045f88826103f1565b975061046a8361058d565b92505060018101905061044b565b5085935050505092915050565b61048e816105ce565b82525050565b60006104a16025836105ab565b91507f54686973206164647265737320697320616c72656164792077686974656c697360008301527f74656420210000000000000000000000000000000000000000000000000000006020830152604082019050919050565b600060208201905061050f6000830184610418565b92915050565b6000602082019050818103600083015261052f8184610427565b905092915050565b600060208201905061054c6000830184610485565b92915050565b6000602082019050818103600083015261056b81610494565b9050919050565b6000819050602082019050919050565b600081519050919050565b6000602082019050919050565b600082825260208201905092915050565b600082825260208201905092915050565b60006105c7826105da565b9050919050565b60008115159050919050565b600073ffffffffffffffffffffffffffffffffffffffff82169050919050565b6000819050919050565b61060d816105bc565b811461061857600080fd5b50565b610624816105fa565b811461062f57600080fd5b5056fea264697066735822122086f5096426ea07e5bda17393bc8d4bce8ff06dfaa4283b6275af7208b8e760da64736f6c63430008000033",
  "immutableReferences": {},
  "source": "// SPDX-License-Identifier: MIT\npragma solidity ^0.8.0;\n\ncontract Whitelist {\n   mapping(address=> bool) public _whitelist;\n   address[] public addresses;\n   event Whitelisted(address _address);\n\n   function whitelist(address _address) public {\n       require(!_whitelist[_address], \"This address is already whitelisted !\");\n       _whitelist[_address] = true;\n       addresses.push(_address);\n       emit Whitelisted(_address);\n   }\n\n   function getAddresses() public view returns(address[] memory){\n       return addresses;\n   }\n}",
  "sourcePath": "/Users/nicolas/Desktop/Truffle/TP DApp Systeme dune liste blanche/contracts/Whitelist.sol",
  "compiler": {
    "name": "solc",
    "version": "0.8.0+commit.c7dfd78e.Emscripten.clang"
  },
  "schemaVersion": "3.4.1",
  "updatedAt": "2021-06-17T21:37:03.530Z",
  "networkType": "ethereum",
  "devdoc": {
    "kind": "dev",
    "methods": {},
    "version": 1
  },
  "userdoc": {
    "kind": "user",
    "methods": {},
    "version": 1
  }
}